:100000005CEF10F00000000000EF00F000000000C6
:0A0010000000000000000000F3D71C
:08001C000AAE029E000E120064
:100024000B840BAE1DEF00F0010E036E026A016A31
:0A003400006A0A360232FF0E1200C5
:0E003E00026A016A006A086A036A000E120074
:10004C000B820BAE30EF00F00368026801680068A9
:08005C000A360232FF0E120009
:100064000CB074EF00F00CA21AEF01F00E6A000E4F
:1000740002648BEF00F0F00E0214D8A456EF00F0E7
:10008400023A01380F0B02260138F00B016E0038DA
:100094000F0B01260038F00B006E08380F0B0026FA
:1000A4000838F00B086E0E84D89002BE6FEF00F093
:1000B40008360036013602360E2A02BE6FEF00F013
:1000C40008360036013602360E2A02BE6FEF00F003
:1000D40008360036013602360E2A0E50036410EF3D
:1000E40001F0035E0BBC08AE15EF01F0D880800E62
:1000F40008640030000E002201220222D8A015EF6D
:1001040001F0023201320032034A1AEF01F015EF16
:1001140001F001C002F000C001F008C000F0086A5C
:10012400000E0E860264C2EF00F0F00E0214D8A492
:10013400AAEF00F0023A01380F0B02260138F00B47
:10014400016E00380F0B01260038F00B006E0E8490
:10015400D89002BE6FEF00F00036013602360E2A48
:1001640002BE6FEF00F00036013602360E2A02BEE0
:100174006FEF00F00036013602360E2A6FEF00F002
:1001840001C002F000C001F0006A000E0E960E8855
:100194000264EFEF00F0F00E0214D8A4DAEF00F0DE
:1001A400023A01380F0B02260138F00B016E0E845F
:1001B400D89002BE6FEF00F0013602360E2A02BE5E
:1001C4006FEF00F0013602360E2A02BE6FEF00F028
:1001D400013602360E2A6FEF00F001C002F0016A08
:1001E400000E0E8602641FEF01F0F00E0214D8A474
:1001F400FEEF00F0023A0E84D89002BE6FEF00F0DA
:1002040002360E2A02BE6FEF00F002360E2A02BE3C
:100214006FEF00F002360E2A6FEF00F0010E0C6E45
:10022400FFDE22EF01F0020E0C6EF6DE22EF01F08B
:10023400040E0C6E09DF22EF01F0080E0C6EFDDED9
:020244001200A6
:10024600025006180E6E086A096A0B6A03500764A4
:1002560016EF02F006500A6E068E028E03500B6EE3
:100266000750036E000E0B6466EF01F00B50075E3D
:10027600D8B407EF02F0070E0764D5EF01F0075E6A
:1002860000C008F001C000F002C001F0026A074E8B
:1002960007EF02F00764AAEF01F0075E00C008F05E
:1002A60001C000F0016A074E07EF02F0076488EF0D
:1002B60001F0075E00C008F0006A074E07EF02F083
:1002C60007646FEF01F00AC002F005C001F004C038
:1002D60000F0086A30EF03F0030E07647AEF01F0CE
:1002E600075E08380F0B086E074E07EF02F0D8902E
:1002F6000832074E07EF02F0D8900832074E07EF94
:1003060002F0D890083207EF02F0030E076499EF67
:1003160001F0075E08380F0B086E0038F00B082650
:1003260000380F0B006E074E07EF02F0D890003230
:100336000832074E07EF02F0D89000320832074E17
:1003460007EF02F0D8900032083207EF02F0030EF2
:100356000764C1EF01F0075E08380F0B086E00381E
:10036600F00B082600380F0B006E0138F00B002644
:1003760001380F0B016E074E07EF02F0D8900132DD
:1003860000320832074E07EF02F0D89001320032F1
:100396000832074E07EF02F0D890013200320832D9
:1003A60007EF02F0030E0764F2EF01F0075E08386C
:1003B6000F0B086E0038F00B082600380F0B006E86
:1003C6000138F00B002601380F0B016E0238F00BD6
:1003D600012602380F0B026E074E07EF02F0D89087
:1003E6000232013200320832074E07EF02F0D8908F
:1003F6000232013200320832074E07EF02F0D8907F
:100406000232013200320832096A000E0EAEFBEFEC
:1004160002F0081E001E011E021E082A00220122EA
:100426000222FBEF02F00750D8A41CEF02F030EFD7
:1004360003F0096A02C00AF0028E068E0750035CBA
:10044600076ED8B4EEEF02F0070E0764BCEF02F0B9
:10045600075E0450096E0550046E0650056E066A66
:10046600074EEEEF02F0070E076491EF02F0075E0B
:100476000450096E0550046E056A074EEEEF02F051
:10048600070E07646FEF02F0075E0450096E046AF8
:10049600074EEEEF02F0070E076456EF02F00AC0B1
:1004A60002F030EF03F0030E076461EF02F0075E1F
:1004B60009380F0B096E074EEEEF02F0D89009329D
:1004C600074EEEEF02F0D8900932074EEEEF02F03B
:1004D600D8900932EEEF02F0030E076480EF02F0C7
:1004E600075E09380F0B096E0438F00B092604382D
:1004F6000F0B046E074EEEEF02F0D890043209326D
:10050600074EEEEF02F0D89004320932074EEEEFB6
:1005160002F0D89004320932EEEF02F0030E0764BF
:10052600A8EF02F0075E09380F0B096E0438F00BCE
:10053600092604380F0B046E0538F00B042605381F
:100546000F0B056E074EEEEF02F0D890053204321F
:100556000932074EEEEF02F0D89005320432093226
:10056600074EEEEF02F0D890053204320932EEEF74
:1005760002F0030E0764D9EF02F0075E09380F0B8D
:10058600096E0438F00B092604380F0B046E053883
:10059600F00B042605380F0B056E0638F00B052602
:1005A60006380F0B066E074EEEEF02F0D8900632B5
:1005B600053204320932074EEEEF02F0D8900632C9
:1005C600053204320932074EEEEF02F0D8900632B9
:1005D600053204320932086A000E0EAEFBEF02F055
:1005E600091E041E051E061E092A042205220622CD
:1005F6000950082604500022055001220650022206
:100606000EBE12EF03F0D8A021EF03F00232013242
:1006160000320832033E21EF03F02BEF03F0D8B08F
:1006260026EF03F0000E081E001E011E021E082AF9
:100636000022012202220A7E26EF03F0010E0C6E32
:100646000EDD32EF03F0020E0C6E09DD32EF03F021
:10065600040E0C6EF8DC32EF03F0000E0C6E120086
:100666000B800BAE3FEF03F0026A0AAEFF0E026E7E
:0C067600016E006E0A360232FF0E120008
:100682000A6A0350D8A40A800750D8A40A820A50E2
:10069200D8B4A4EF03F0030AD8B45DEF03F00AB0B4
:1006A20058EF03F006AEA2EF03F0A0EF03F002AEA4
:1006B200A0EF03F0A2EF03F00250800B0A6E029E3D
:1006C2000650800B069E0A18D8B46EEF03F00A504B
:1006D200D8B4A0EF03F0A2EF03F00750035CD8B444
:1006E20078EF03F0D8A094EF03F09AEF03F00650EE
:1006F200025CD8B482EF03F0D8A094EF03F09AEF33
:1007020003F00550015CD8B48CEF03F0D8A094EF4D
:1007120003F09AEF03F00450005CD8B4A4EF03F0A6
:10072200D8B09AEF03F00A52D8B4A2EF03F0A0EFC8
:1007320003F00A52D8B4A0EF03F0A2EF03F0D8807E
:0E0742001200D8901200D880D8841200120045
:100750000C6A0E6A0250D8A4C1EF03F001C002F087
:1007600000C001F0006A0E860250D8A4C1EF03F069
:1007700001C002F0016A0E960E880250D8B4D3EF81
:1007800003F00E50035ED8A4D8A0D8EF03F0D890A1
:1007900002BEDDEF03F0003601360236032EC8EF4D
:1007A00003F0D8EF03F0010E0C6E49DCE0EF03F02C
:1007B000020E0C6E37DCE0EF03F0040E0C6E2EDC44
:0207C000120025
:1007C200086A096A000E0762036466EF04F00250C9
:1007D20006180A6E075003267E0ED8A0F7EF03F024
:1007E200035ED8B06BEF04F0FBEF03F0035ED8A01A
:1007F20070EF04F0028E068E02C00EF001C00BF004
:1008020000C00DF000500402F4CF0CF001500502BC
:10081200F4CF00F0F3CF08F00402F3500C26F450AA
:100822000822000E00220D500502F3500C26F4504F
:100832000822000E002202500402F3500826F4504F
:10084200002202500502016A000E0122F350002626
:10085200F45001220D500602F3500826F4500022F3
:10086200026A000E012202220B500602F3500026F9
:10087200F4500122000E02220E500602F35001260D
:10088200F450022202BE4EEF04F008360036013662
:1008920002360306D8B470EF04F061EF04F0D8809A
:1008A200800E08640030000E002201220222D8A02D
:1008B20061EF04F0023201320032034A6BEF04F0BE
:1008C2000AAE029E000E73EF04F0010E1FEC00F060
:1008D20073EF04F0020E26EC00F073EF04F0040E46
:0608E20012EC00F0120010
:0608E800067EADDC1200EB
:1008EE000050086E0150006E0250016E0350026EF1
:1008FE00036A0B6A0C6A9E0E036E0A6A02AE94EFCE
:10090E0004F0081E001E011E021E082AD8B4002A7A
:10091E00D8B4012AD8B4022A0A8E020E0C6E32EC1A
:04092E0000F01200C3
:100932000B6A0C6A086A0350D8B41DEF05F002C0B6
:100942000AF0028E9E0E035E03AE0DEF05F0036CFD
:10095200080E035CD8A0DAEF04F0036E083600C07C
:1009620008F001C000F002C001F0026A080E035C48
:10097200D8A0DAEF04F0036E083600C008F001C018
:1009820000F0016A080E035CD8A0DAEF04F0036EEF
:10099200083600C008F0006A080E035CD8A0DAEF3F
:1009A20004F0036E0836086A0350D8A4D890E6EF24
:1009B20004F00350D8B4E6EF04F0D89002320132CA
:1009C20000320832032EDEEF04F00BBC08A0F7EF72
:1009D20004F0D8A0F7EF04F0082AD8B4002AD8B45B
:1009E200012AD8B4022A02BE21EF05F00AAE1DEF99
:1009F20005F0021E011E001E081E082AD8B4002A95
:100A0200D8B4012AD8B4022A1DEF05F0026A016A9D
:100A1200006A086A1DEF05F00B800BAE27EF05F0A8
:100A2200026A0AAE27EF05F0026E016E006E086ED2
:100A32000A36023227EF05F00C6A000E28EF05F0A5
:100A4200010E0C6E000E0EDE28EF05F0FF0E0250B6
:100A5200036E0150026E0050016E0850006E1200CB
:080A62000B6A0B86FF0E120067
:0A0A6A00210E0D6E0D2EFED71200B6
:100A74000F0E0C6E470E0D6E0D2EFED70C2EFCD7EE
:060A84000000000012005A
:060A8A0000000000120054
:100A900003500718D8A45CEF05F002500618D8A43C
:100AA0005CEF05F001500518D8A45CEF05F000508C
:0E0AB0000418D8B4D8841200D8941200120092
:100ABE0000019FBF02D0839E01D0838E9FBD02D0C6
:100ACE00839C01D0838C9FBB02D0839A01D0838AF2
:100ADE009FB902D0839801D0838825B002D083803D
:100AEE0001D083908382CADF83929FB702D0839E08
:100AFE0001D0838E9FB502D0839C01D0838C9FB38F
:100B0E0002D0839A01D0838A9FB102D0839801D0FC
:100B1E00838825B002D0838001D083908382AEDF9C
:0E0B2E00839225A002D09FDF01D098DF120035
:100B3C00A2C000F0016A026A036AFF0E0016000EE2
:100B4C00011600C0A7F001C0A8F07F0E005C026E79
:100B5C00000E0158036E02C0A7F003C0A8F0800E6F
:100B6C000318006E800E005C02E1000E025C21E2B4
:100B7C00046A056A066A076A9FC000F0A0C001F00B
:100B8C00A1C002F0A2C003F076DD010ED8B0000EB9
:100B9C00006E005209E0000E006E000E016E800E19
:100BAC00026E7F0E036E58D0006A016A026A036AF5
:100BBC0053D00001A851000802E1A751180809E21E
:100BCC009FC000F0A0C001F0A1C002F0A2C003F0D1
:100BDC0043D09FC000F0A0C001F0A1C002F0A2C0A1
:100BEC0003F0A1DE7EDE00C0A3F001C0A4F002C0C1
:100BFC00A5F003C0A6F000C004F001C005F002C0CF
:100C0C0006F003C007F09FC000F0A0C001F0A1C027
:100C1C0002F0A2C003F02FDD010ED8B0000E006E62
:100C2C00005212E0000E046E000E056E000E066EF1
:100C3C007F0E076EA3C000F0A4C001F0A5C002F0A7
:100C4C00A6C003F04BDE08D0A3C000F0A4C001F096
:0A0C5C00A5C002F0A6C003F01200CC
:100C66000B6A0350D8B479EF06F002500A6E028E72
:100C76008E0E035E03AE7DEF06F0036C080E035C7A
:100C8600D8A058EF06F0036E013602C001F0026AE2
:100C9600080E035CD8A058EF06F0036E0136016A11
:100CA6000350D8A4D89062EF06F00350D8B462EF90
:100CB60006F0D89002320132032E5CEF06F00BBC30
:100CC60001A06FEF06F0D8A06FEF06F0012AD8B4A6
:100CD600022A02BE8CEF06F00AAE91EF06F0021E63
:100CE600011E012AD8B4022A91EF06F0026A016AAF
:100CF60091EF06F00B800BAE95EF06F0026A0AAE96
:100D060095EF06F0FF0E026E016E0A36023295EF7F
:100D160006F0010E0C6EA4DC97EF06F0000E0C6ECA
:100D260097EF06F0FF0E0C6E0150006E0250016E3A
:020D36001200A9
:100D38009F0E0001A56F000EA66F030EA525D96EA4
:100D4800000EA621DA6EDE50A325016E000EA42146
:100D5800026E01C0A3F002C0A4F0800E0218006E5B
:100D6800800E005C02E1000E015C05E2006A016A87
:100D7800026A036A3ED0800E006E800EA419005CE1
:100D880002E1A351FF0825E2046A056A066A076AB8
:100D98009FC000F0A0C001F0A1C002F0A2C003F003
:100DA8006CDC010ED8B0000E006E005209E0FF0E98
:100DB800006EFF0E016EFF0E026EFF0E036E19D05D
:100DC800FF0E006EFF0E016E7F0E026EFF0E036EA9
:100DD80010D0030EA525E16E000EA621E26EA3C079
:100DE800E6FF9FC000F0A0C001F0A1C002F0A2C0C1
:040DF80003F01200F2
:100DFC0000C008F00150006E016A026A036A0B6AB7
:100E0C000C6A016A026A036A960E036E0A6A00AEE5
:100E1C0016EF07F0081E001E082AD8B4002A0A8E06
:100E2C0000C001F008C000F0086A026A8BDC1200F6
:100E3C000450000A12E10550000A0FE10650000AA6
:100E4C000CE10750000A09E1FF0E006EFF0E016E67
:100E5C007F0E026EFF0E036EA7D0086A096A075058
:100E6C00D8B4C9EF07F00350D8B4CDEF07F0025057
:100E7C0006180A6E028E068E0E6A02C008F001C0B9
:100E8C000CF000C00DF004500D5E0550D8A0053CD0
:100E9C000C5E0650D8A0063C085E086A0C6A0D6A07
:100EAC00D8A060EF07F0D89002320132003208323D
:100EBC00010E0E6E0750035ED8A06DEF07F07E0E8C
:100ECC000E240326D8B0D2EF07F073EF07F07E0E96
:100EDC000E240326D8A0D7EF07F0180E0B6E0D3694
:100EEC000C3608360036013602360E360450005EDB
:100EFC000550D8A0053C015E0650D8A0063C025E09
:100F0C0006340E120EA08EEF07F00D8099EF07F04D
:100F1C00045000260550D8B0053C01260650D8B028
:100F2C00062802260D900B2E75EF07F0BFEF07F089
:100F3C00D8900036013602360E360450005E05504D
:100F4C00D8A0053C015E0650D8A0063C025E0634D3
:100F5C000E10010B0D26D8B00C2AD8B4082AD8A430
:100F6C00BFEF07F008320C320D32032AD8B4D2EF9F
:100F7C0007F00AAE089E0850026E0C50016E0D5020
:100F8C00006EDAEF07F0010E66DDDAEF07F0020E05
:100F9C001FEC00F0DAEF07F0040E26EC00F0DAEFAD
:0A0FAC0007F0080E12EC00F012002E
:100FB600A6C000F0A7C001F0000E0001A7BFFF0EFB
:100FC600026E036E00360090013602360336003696
:100FD6000090013602360336A3510024F66EA45162
:100FE6000120F76EA5510220F86E0900F5CFA8F092
:100FF6000900F5CFA9F00900F5CFAAF00900F5CF51
:10100600ABF0A651A71149E09FC000F0A0C001F0C7
:10101600A1C002F0A2C003F0A8C004F0A9C005F068
:10102600AAC006F0ABC007F0E1EC03F0010EA65F24
:10103600000EA75BA6C004F0A7C005F0000EA7BF70
:10104600FF0E066E076E0436049005360636073622
:1010560004360490053606360736A3510424F66E88
:10106600A4510520F76EA5510620F86E0900F5CFAC
:1010760004F00900F5CF05F00900F5CF06F00900E8
:10108600F5CF07F023EC01F000C0A8F001C0A9F0ED
:1010960002C0AAF003C0ABF0B4D7A8C000F0A9C044
:0C10A60001F0AAC002F0ABC003F0120081
:1010B2009F0E046E000E056E030E0424E96E000EF0
:1010C2000520EA6E7E0EEE5C006E016A000E015A89
:1010D200A3C0E1FFA4C0E2FF00C0E6FF01C0E6FF3B
:1010E200030E0424E16E000E0520E26E7E0EE66E13
:1010F2009FC000F0A0C001F0A1C002F0A2C003F0A6
:021102001200D9
:101104000B6A0A6A096A086A0E6A033408360450CC
:10111400085E0550D8A0053C095E0650D8A0063CE0
:101124000A5E0750D8A0073C0B5EE86AD8A0010EFF
:101134000E5E0336070E0C6E0334083609360A3683
:101144000B360E36045003A012D0085E0550D8A00A
:10115400053C095E0650D8A0063C0A5E0750D8A09C
:10116400073C0B5EE86AD8A0010E0E5E11D008267B
:101174000550D8B0053C09260650D8B0063C0A26CE
:101184000750D8B0073C0B26E86AD8B0010E0E26EB
:1011940003360C2ED1D70234083609360A360B36FC
:1011A4000E36045003A012D0085E0550D8A0053CAA
:1011B400095E0650D8A0063C0A5E0750D8A0073C3A
:1011C4000B5EE86AD8A0010E0E5E11D00826055009
:1011D400D8B0053C09260650D8B0063C0A2607506C
:1011E400D8B0073C0B26E86AD8B0010E0E260236AA
:1011F400070E0C6E0234083609360A360B360E36E4
:10120400045002A012D0085E0550D8A0053C095E27
:101214000650D8A0063C0A5E0750D8A0073C0B5ED7
:10122400E86AD8A0010E0E5E11D008260550D8B089
:10123400053C09260650D8B0063C0A260750D8B00B
:10124400073C0B26E86AD8B0010E0E2602360C2E97
:10125400D1D70134083609360A360B360E36045017
:1012640002A012D0085E0550D8A0053C095E0650C5
:10127400D8A0063C0A5E0750D8A0073C0B5EE86A7B
:10128400D8A0010E0E5E11D008260550D8B0053C3A
:1012940009260650D8B0063C0A260750D8B0073CA9
:1012A4000B26E86AD8B0010E0E260136070E0C6E26
:1012B4000134083609360A360B360E36045001A0BE
:1012C40012D0085E0550D8A0053C095E0650D8A08F
:1012D400063C0A5E0750D8A0073C0B5EE86AD8A01B
:1012E400010E0E5E11D008260550D8B0053C092623
:1012F4000650D8B0063C0A260750D8B0073C0B2647
:10130400E86AD8B0010E0E2601360C2ED1D700346F
:10131400083609360A360B360E36045001A012D0B0
:10132400085E0550D8A0053C095E0650D8A0063CCE
:101334000A5E0750D8A0073C0B5EE86AD8A0010EED
:101344000E5E11D008260550D8B0053C092606507B
:10135400D8B0063C0A260750D8B0073C0B26E86AEA
:10136400D8B0010E0E260036070E0C6E0034083677
:1013740009360A360B360E36045000A012D0085E29
:101384000550D8A0053C095E0650D8A0063C0A5E6C
:101394000750D8A0073C0B5EE86AD8A0010E0E5E89
:1013A40011D008260550D8B0053C09260650D8B0FF
:1013B400063C0A260750D8B0073C0B26E86AD8B08A
:1013C400010E0E2600360C2ED1D700B00ED00450DC
:1013D40008260550D8B0053C09260650D8B0063C6E
:0C13E4000A260750D8B0073C0B26120068
:0E13F000259080C09FF05FEC05F02580120074
:1013FE00046A056A066A076A95C000F096C001F095
:10140E0097C002F098C003F048EC05F0010ED8A486
:10141E00000E006E005209E0000E006E000E016E0E
:10142E00000E026E7F0E036EFED095C004F096C0C5
:10143E0005F097C006F098C007F0FC0E006ED40EB3
:10144E00016E320E026E850E036E41EC03F0010E3C
:10145E00D8B0000E006E005209E0FF0E006EFF0EB7
:10146E00016E7F0E026EFF0E036EDDD04F0E046E08
:10147E00AC0E056EAE0E066E850E076E95C000F0B4
:10148E0096C001F097C002F098C003F041EC03F053
:10149E00010ED8B0000E006E005205E0006A016A1F
:1014AE00026A036AC0D0046A056A066A076A95C0B2
:1014BE0000F096C001F097C002F098C003F041EC26
:1014CE0003F0010ED8B0000E006E00C080F0005286
:1014DE0002E00001977F95C000F096C001F097C022
:1014EE0002F098C003F03B0E046EAA0E056E380E85
:1014FE00066E7F0E076EE1EC03F000C095F001C0A2
:10150E0096F002C097F003C098F000C09FF001C0A3
:10151E00A0F002C0A1F003C0A2F09EEC05F033ECE7
:10152E0006F000C099F001C09AF061DC00C004F032
:10153E0001C005F002C006F003C007F095C000F030
:10154E0096C001F097C002F098C003F074EC04F05E
:10155E0000C095F001C096F002C097F003C098F05D
:10156E0000C09FF001C0A0F002C0A1F003C0A2F025
:10157E00DE0E0001A36F220EA46F000EA56F090EE2
:10158E00A66F000EA76F10DD00C09FF001C0A0F087
:10159E0002C0A1F003C0A2F099C0A3F09AC0A4F0BB
:1015AE009CEC06F000C095F001C096F002C097F0DA
:1015BE0003C098F080532FE0FF0E046EFF0E056EF1
:1015CE007F0E066EFF0E076E95C000F096C001F0FE
:1015DE0097C002F098C003F048EC05F0010ED8A4B5
:1015EE00000E006E005205E0006A016A026A036A8C
:1015FE001AD095C004F096C005F097C006F098C0BA
:10160E0007F0000E006E000E016E000E026E7F0ED1
:10161E00036E0DDC08D095C000F096C001F097C0A7
:08162E0002F098C003F0120065
:1016360095C004F096C005F097C006F098C007F074
:10164600006A016A026A036A41EC03F0000ED8B030
:10165600010E006E005205E0006A016A026A036A22
:101666006BD095C09FF096C0A0F097C0A1F098C02F
:10167600A2F0990E0001A36F000EA46F17DD000EF5
:10168600046E000E056E000E066E800E076EE1EC0F
:1016960003F0000E046E000E056E000E066E7F0E41
:1016A600076E74EC04F000C095F001C096F002C01D
:1016B60097F003C098F0010E995F000E9A5B00C088
:1016C6009FF001C0A0F002C0A1F003C0A2F0060E78
:1016D600A36F230EA46F000EA56F080EA66F000E53
:1016E600A76F66DC00C09BF001C09CF002C09DF0B5
:1016F60003C09EF09BC095F09CC096F09DC097F0ED
:101706009EC098F099C000F09AC001F0FEEC06F079
:10171600180E046E720E056E310E066E7E0E076E84
:10172600E1EC03F09BC004F09CC005F09DC006F000
:0A1736009EC007F023EC01F0120042
:10174000220E0C6E086A096A0A6A0B6A0C06D8B483
:101750001FD0D8900B320A320932083203320232DB
:1017600001320032D8A0F2D70C06D8B409D0045008
:1017700008260550092206500A2207500B22EAD7F4
:10178000045008260550092206500A2207500B2251
:02179000120045
:101792000050086E0150006E016A026A036A0B6A09
:1017A2000C6A960E036E0A6A00C001F008C000F0CF
:0A17B200086A026AA8EC03F01200B6
:1017BC0089C000F08AC001F0000E026E036E0001B9
:1017CC008B5100268C510122000E022203221200A2
:1017DC0089C000F08AC001F0000E026E036E8BC04F
:1017EC0004F08CC005F0000E066E076EA3DF12002D
:1017FC0089C000F08AC001F0000E026E036E8BC02F
:10180C0004F08CC005F0000E066E076E75DC12003D
:10181C0089C000F08AC001F0000E026E036E000158
:10182C008B51005E8C51015A000E025A035A120061
:10183C000B6A0C6A0A6A0350D8B468EF0CF0028E7B
:10184C008E0E035E03BE30EF0CF0D8B430EF0CF00C
:10185C006CEF0CF0036C080E035CD8A047EF0CF097
:10186C00036E013602C001F0026A080E035CD8A0B8
:10187C0047EF0CF00136016A0350D8A4D89051EF11
:10188C000CF00350D8B451EF0CF0D8900232013266
:10189C00032E4BEF0CF00BBC01A05EEF0CF0D8A0AC
:1018AC005EEF0CF0012AD8B4022A02BE7BEF0CF0DA
:1018BC000AAE81EF0CF0021E011E012AD8B4022AD6
:1018CC0081EF0CF0026A016A81EF0CF00B800BAE19
:1018DC0085EF0CF0026A0AAE85EF0CF0FF0E026E7B
:1018EC00016E0A36023285EF0CF0010E0C6E33ECF1
:1018FC0003F087EF0CF0000E0C6E87EF0CF0FF0E70
:0C190C000C6E0150006E0250016E1200C3
:101918000B6A0A6A096A00500402F4CF09F0F3CF8F
:1019280008F001500502F4CF0BF0F3CF0AF0005095
:101938000502F3500926F4500A22E86A0B220150E6
:101948000402F3500926F4500A22E86A0B2208C060
:1019580000F009C001F00AC002F00BC003F0120049
:101968007F6A7F5000018925E96E000E8A21EA6EA0
:10197800EE520BE07F508925E96E000E8A21EA6E4F
:0C198800EECF80F031DD7F2AECD712009A
:101994007F6A046A056A066A076A8DC000F08EC011
:1019A40001F08FC002F090C003F048EC05F0010E86
:1019B400D8A4000E006E005209E0000E006E000E66
:1019C400016E000E026E7F0E036EA7D0046A056AD4
:1019D400066A076A89C000F08AC001F08BC002F071
:1019E4008CC003F048EC05F0010ED8A4000E006E84
:1019F400005205E0006A016A026A036A8ED0046A32
:101A0400056A066A076A89C000F08AC001F08BC0C3
:101A140002F08CC003F041EC03F0010ED8B0000ECC
:101A2400006E00522EE08DC000F08EC001F08FC019
:101A340002F090C003F099EC04F000C091F001C0F2
:101A440092F002C093F003C094F077EC04F08DC0E0
:101A540004F08EC005F08FC006F090C007F048EC8B
:101A640005F0000ED8A4010E006E005205E0006AD5
:101A7400016A026A036A51D0010E000191157F6E5A
:101A84008B7F89C095F08AC096F08BC097F08CC08C
:101A940098F0CFDD00C089F001C08AF002C08BF05D
:101AA40003C08CF08DC004F08EC005F08FC006F02A
:101AB40090C007F0E1EC03F000C089F001C08AF0A7
:101AC40002C08BF003C08CF000C095F001C096F00A
:101AD40002C097F003C098F090DC00C089F001C008
:101AE4008AF002C08BF003C08CF07F520EE0000E2F
:101AF40000018919006E000E8A19016E800E8B197F
:101B0400026E000E8C19036E08D089C000F08AC0E2
:0C1B140001F08BC002F08CC003F0120046
:101B2000586A596A5A6A5B6A5C6A5D6A586A596A95
:101B3000000E595C02E15750585C44E2585055245D
:101B4000E96E59505620EA6E300EEE5C5E6E5F6AAA
:101B5000000E5F5A000E0001896F000E8A6F200E82
:101B60008B6F820E8C6F5850575C006E59C001F01D
:101B7000000E0156010E005E000E015A0ADE00C082
:101B80008DF001C08EF002C08FF003C090F002DF34
:101B9000000E046E000E056E000E066E7E0E076EC1
:101BA00023EC01F04BDE5EC004F05FC005F0B4DE54
:101BB00000505A2601505B22000E5C225D22584ADA
:101BC000592AB6D75AC000F05BC001F05CC002F0E1
:061BD0005DC003F01200ED
:101BD600F250026EF29E0500FF6A0150FE6E005042
:081BE600FD6E02BEF28E12003A
:101BEE00596A5A6A5B6A5C6A5D6A5E6A5F6A606AB3
:101BFE00616A626A636A646A656A666A676A686A63
:101C0E00696A6A6A6B6A6C6A6D6A6E6A6F6A706A12
:101C1E00716A726A736A746A756A766A776A786AC2
:101C2E00796A7A6A55C081F056C082F057C083F047
:101C3E0058C084F0000E006E0001841908E10050B7
:101C4E00831905E10050821902E18151000A1FE05B
:101C5E00010E5926000E5A225B225C220A0E046ED9
:101C6E00000E056E066E076E81C000F082C001F098
:101C7E0083C002F084C003F082EC08F000C081F053
:101C8E0001C082F002C083F003C084F0D3D77B6A18
:101C9E007C6A7D6A7E6A5C507E5C08E15B507D5C8E
:101CAE0005E15A507C5C02E159507B5C67E2000111
:101CBE000A0E046E000E056E066E076E55C000F01D
:101CCE0056C001F057C002F058C003F082EC08F085
:101CDE0008C000F009C001F00AC002F00BC003F00A
:101CEE0000C085F001C086F002C087F003C088F006
:101CFE000A0E046E000E056E066E076E55C000F0DD
:101D0E0056C001F057C002F058C003F082EC08F044
:101D1E0000C055F001C056F002C057F003C058F095
:101D2E00010E7B24046E000E7C20056E000E7D20BD
:101D3E00066E000E7E20076E59C000F05AC001F0EC
:101D4E005BC002F05CC003F00450005E0550015A07
:101D5E000650025A0750035A5D0E0024E16E000E23
:101D6E000120E26E300E8525006E00C0E6FF010EEA
:101D7E007B26000E7C227D227E228DD700015D0EF9
:101D8E005924E16E000E5A20E26EE66A5D0E896FEE
:081D9E00000E8A6FE2DD120065
:101DA600959295909598959A959C959E83928390F9
:101DB600839E839C839A83983AEC05F03AEC05F06F
:101DC6003AEC05F0838A8388838245EC05F083929A
:101DD6003AEC05F0838245EC05F083923AEC05F087
:101DE600838245EC05F083923AEC05F08398838272
:101DF60045EC05F083923AEC05F0838245EC05F05C
:101E06008392839A838E838245EC05F083923AEC23
:101E160005F0839E8388838245EC05F08392839840
:101E2600838245EC05F083923AEC05F0838245EC1B
:101E360005F083928388838245EC05F083923AEC21
:101E460005F08398838245EC05F08392838E838C1C
:101E5600838A8388838245EC05F083923AEC05F009
:041E660025801200C1
:0A1E6A000F0E936E0F0E816E120032
:101E74008198818A818C818E81CF00F0010E0014BB
:101E8400016E0150000A03E115C000F00AD181CFB0
:101E940000F00032009E010E0014016E0150000A91
:101EA40003E116C000F0FDD081CF00F00032009EA7
:101EB4000032009E010E0014016E0150000A03E17D
:101EC40017C000F0EED081CF00F00032009E003247
:101ED400009E0032009E010E0014016E0150000AA3
:101EE40003E118C000F0DDD0030E0C6E970E0D6EEA
:101EF4000D2EFED70C2EFCD7000000008188819A9D
:101F0400818C818E81CF00F0010E0014016E01508E
:101F1400000A03E119C000F0C4D081CF00F0003200
:101F2400009E010E0014016E0150000A03E11AC064
:101F340000F0B7D081CF00F00032009E0032009E46
:101F4400010E0014016E0150000A03E11BC000F0F1
:101F5400A8D081CF00F00032009E0032009E0032F3
:101F6400009E010E0014016E0150000A03E11CC022
:101F740000F097D0030E0C6E970E0D6E0D2EFED74B
:101F84000C2EFCD7000000008188818A819C818E00
:101F940081CF00F0010E0014016E0150000A03E12C
:101FA4001DC000F07ED081CF00F00032009E010EF3
:101FB4000014016E0150000A03E11EC000F071D04C
:101FC40081CF00F00032009E0032009E010E00140A
:101FD400016E0150000A03E11FC000F062D081CFFE
:101FE40000F00032009E0032009E0032009E010E7E
:101FF4000014016E0150000A03E120C000F051D02A
:10200400030E0C6E970E0D6E0D2EFED70C2EFCD704
:10201400000000008188818A818C819E81CF00F03C
:10202400010E0014016E0150000A03E121C000F00A
:1020340038D081CF00F00032009E010E0014016EF2
:102044000150000A03E122C000F02BD081CF00F040
:102054000032009E0032009E010E0014016E0150F9
:10206400000A03E123C000F01CD081CF00F000324D
:10207400009E0032009E0032009E010E0014016E8C
:102084000150000A03E124C000F00BD0030E0C6ED3
:10209400970E0D6E0D2EFED70C2EFCD700000000FF
:0420A400006A1200BC
:1020A8000900F5CFE6FF0006FBE10106F9E11200A1
:1020B800AEEC11F0DC0E266E170E276E890E286E18
:1020C800000E296EBC0E2A6E170E2B6E890E2C6E12
:1020D800000E2D6E2E6A2F6A306A316A1C0E326E1F
:1020E800180E336E890E346E000E356E366A376AF6
:1020F800386A396AFC0E3A6E170E3B6E890E3C6ED2
:10210800000E3D6E3E6A3F6A406A416A426A436A0F
:10211800446A456A466A476A486A496A4A6A4B6A2B
:10212800FF0E4C6EFF0E4D6EFF0E4E6EFF0E4F6E85
:10213800F16A060EC16E946A32DE93DE97DE00C045
:1021480050F00050000AD8B4AFD04A50000A04E159
:102158004B50000A01E104D05050630A01E009D055
:10216800010E00019F6F5FEC05F04C6A4D6A4E6AE4
:102178004F6A300E505C1BE35050390818E34AC0D0
:1021880000F0000E016E0036009001360036009017
:1021980001363E0E0026000E01224B500024E16E4F
:1021A800000E0120E26E50C0E6FF4B2A1FD0300E11
:1021B800505C1CE25050290819E24BC04CF0000E4C
:1021C8004D6E4B6A4A2A4AC000F0000E016E003676
:1021D800009001360036009001363E0E0024E16E74
:1021E800000E0120E26E50C0E6FF4A2A5050630AF2
:1021F80004E050C080F0F8EC09F050503D0A50E17E
:102208004BC04EF0000E4F6E4A6A4B6A3E0E556E3A
:10221800000E566E4CC057F07FDC00C051F001C074
:1022280052F0460E556E000E566E4EC057F074DCD6
:1022380000C053F001C054F02A0E425C036E046AD9
:10224800000E045A03C000F004C001F000360090EC
:102258000136003600900136260E0024E96E000E85
:102268000120EA6EEECF00F0EECF01F0EECF02F0E3
:10227800EECF03F002C0E1FF03C0E2FF51C0E6FF6A
:1022880052C0E6FF53C0E6FF54C0E6FFA0DC00C022
:1022980055F001C056F002C057F003C058F0A3DC57
:0C22A800E5DD005201E0FCD749D7FFD76C
:10235C0010EE15F0100E006E010E016E4C0EF66EA6
:0E236C00230EF76E000EF86E54EC10F0120007
:1022B400DC178900BC178900000000001C18890085
:0822C40000000000FC17890076
:0C22CC0000000000000000000000000006
:0122D8000005
:0122D9000004
:0422DA00FFFFFFFF04
:1022DE000000007F1872317EF0FD757C4758637ADE
:1022EE0058951D7882C42E75A8782172EF93006FD1
:0822FE00A092276B46561568FB
:10230600FFE65B5DC4FF7F7E80EFFF7D90E1297D68
:10231600EC82F67C82AD2B7C0E3CC37B87D1137A94
:042326004178D377B0
:04232A0000000000AF
:10232E00000000000000000000000000000000009F
:0E233E00000000000000000000000000000091
:10234C0037343163383532303936333D2F2A2D2B23
:020000040030CA
:0D000100220F0EFF0181FF0FC00FE00F4026
:00000001FF
